{
  "_format": "hh-sol-artifact-1",
  "contractName": "MyToken",
  "sourceName": "contracts/MyToken.sol",
  "abi": [
    {
      "inputs": [
        {
          "internalType": "uint256",
          "name": "cap",
          "type": "uint256"
        },
        {
          "internalType": "uint256",
          "name": "reward",
          "type": "uint256"
        },
        {
          "internalType": "uint256",
          "name": "_rewardRate",
          "type": "uint256"
        }
      ],
      "stateMutability": "nonpayable",
      "type": "constructor"
    },
    {
      "inputs": [
        {
          "internalType": "uint256",
          "name": "increasedSupply",
          "type": "uint256"
        },
        {
          "internalType": "uint256",
          "name": "cap",
          "type": "uint256"
        }
      ],
      "name": "ERC20ExceededCap",
      "type": "error"
    },
    {
      "inputs": [
        {
          "internalType": "address",
          "name": "spender",
          "type": "address"
        },
        {
          "internalType": "uint256",
          "name": "allowance",
          "type": "uint256"
        },
        {
          "internalType": "uint256",
          "name": "needed",
          "type": "uint256"
        }
      ],
      "name": "ERC20InsufficientAllowance",
      "type": "error"
    },
    {
      "inputs": [
        {
          "internalType": "address",
          "name": "sender",
          "type": "address"
        },
        {
          "internalType": "uint256",
          "name": "balance",
          "type": "uint256"
        },
        {
          "internalType": "uint256",
          "name": "needed",
          "type": "uint256"
        }
      ],
      "name": "ERC20InsufficientBalance",
      "type": "error"
    },
    {
      "inputs": [
        {
          "internalType": "address",
          "name": "approver",
          "type": "address"
        }
      ],
      "name": "ERC20InvalidApprover",
      "type": "error"
    },
    {
      "inputs": [
        {
          "internalType": "uint256",
          "name": "cap",
          "type": "uint256"
        }
      ],
      "name": "ERC20InvalidCap",
      "type": "error"
    },
    {
      "inputs": [
        {
          "internalType": "address",
          "name": "receiver",
          "type": "address"
        }
      ],
      "name": "ERC20InvalidReceiver",
      "type": "error"
    },
    {
      "inputs": [
        {
          "internalType": "address",
          "name": "sender",
          "type": "address"
        }
      ],
      "name": "ERC20InvalidSender",
      "type": "error"
    },
    {
      "inputs": [
        {
          "internalType": "address",
          "name": "spender",
          "type": "address"
        }
      ],
      "name": "ERC20InvalidSpender",
      "type": "error"
    },
    {
      "anonymous": false,
      "inputs": [
        {
          "indexed": true,
          "internalType": "address",
          "name": "owner",
          "type": "address"
        },
        {
          "indexed": true,
          "internalType": "address",
          "name": "spender",
          "type": "address"
        },
        {
          "indexed": false,
          "internalType": "uint256",
          "name": "value",
          "type": "uint256"
        }
      ],
      "name": "Approval",
      "type": "event"
    },
    {
      "anonymous": false,
      "inputs": [
        {
          "indexed": true,
          "internalType": "address",
          "name": "from",
          "type": "address"
        },
        {
          "indexed": true,
          "internalType": "address",
          "name": "to",
          "type": "address"
        },
        {
          "indexed": false,
          "internalType": "uint256",
          "name": "value",
          "type": "uint256"
        }
      ],
      "name": "Transfer",
      "type": "event"
    },
    {
      "inputs": [
        {
          "internalType": "address",
          "name": "owner",
          "type": "address"
        },
        {
          "internalType": "address",
          "name": "spender",
          "type": "address"
        }
      ],
      "name": "allowance",
      "outputs": [
        {
          "internalType": "uint256",
          "name": "",
          "type": "uint256"
        }
      ],
      "stateMutability": "view",
      "type": "function"
    },
    {
      "inputs": [
        {
          "internalType": "address",
          "name": "spender",
          "type": "address"
        },
        {
          "internalType": "uint256",
          "name": "value",
          "type": "uint256"
        }
      ],
      "name": "approve",
      "outputs": [
        {
          "internalType": "bool",
          "name": "",
          "type": "bool"
        }
      ],
      "stateMutability": "nonpayable",
      "type": "function"
    },
    {
      "inputs": [
        {
          "internalType": "address",
          "name": "account",
          "type": "address"
        }
      ],
      "name": "balanceOf",
      "outputs": [
        {
          "internalType": "uint256",
          "name": "",
          "type": "uint256"
        }
      ],
      "stateMutability": "view",
      "type": "function"
    },
    {
      "inputs": [],
      "name": "blockReward",
      "outputs": [
        {
          "internalType": "uint256",
          "name": "",
          "type": "uint256"
        }
      ],
      "stateMutability": "view",
      "type": "function"
    },
    {
      "inputs": [
        {
          "internalType": "uint256",
          "name": "value",
          "type": "uint256"
        }
      ],
      "name": "burn",
      "outputs": [],
      "stateMutability": "nonpayable",
      "type": "function"
    },
    {
      "inputs": [
        {
          "internalType": "address",
          "name": "account",
          "type": "address"
        },
        {
          "internalType": "uint256",
          "name": "value",
          "type": "uint256"
        }
      ],
      "name": "burnFrom",
      "outputs": [],
      "stateMutability": "nonpayable",
      "type": "function"
    },
    {
      "inputs": [],
      "name": "cap",
      "outputs": [
        {
          "internalType": "uint256",
          "name": "",
          "type": "uint256"
        }
      ],
      "stateMutability": "view",
      "type": "function"
    },
    {
      "inputs": [],
      "name": "claimReward",
      "outputs": [],
      "stateMutability": "nonpayable",
      "type": "function"
    },
    {
      "inputs": [],
      "name": "decimals",
      "outputs": [
        {
          "internalType": "uint8",
          "name": "",
          "type": "uint8"
        }
      ],
      "stateMutability": "view",
      "type": "function"
    },
    {
      "inputs": [],
      "name": "feePercent",
      "outputs": [
        {
          "internalType": "uint256",
          "name": "",
          "type": "uint256"
        }
      ],
      "stateMutability": "view",
      "type": "function"
    },
    {
      "inputs": [],
      "name": "freezeContract",
      "outputs": [],
      "stateMutability": "nonpayable",
      "type": "function"
    },
    {
      "inputs": [],
      "name": "isFrozen",
      "outputs": [
        {
          "internalType": "bool",
          "name": "",
          "type": "bool"
        }
      ],
      "stateMutability": "view",
      "type": "function"
    },
    {
      "inputs": [
        {
          "internalType": "address",
          "name": "",
          "type": "address"
        }
      ],
      "name": "lastClaimTime",
      "outputs": [
        {
          "internalType": "uint256",
          "name": "",
          "type": "uint256"
        }
      ],
      "stateMutability": "view",
      "type": "function"
    },
    {
      "inputs": [
        {
          "internalType": "address",
          "name": "to",
          "type": "address"
        },
        {
          "internalType": "uint256",
          "name": "amount",
          "type": "uint256"
        }
      ],
      "name": "mint",
      "outputs": [],
      "stateMutability": "nonpayable",
      "type": "function"
    },
    {
      "inputs": [],
      "name": "name",
      "outputs": [
        {
          "internalType": "string",
          "name": "",
          "type": "string"
        }
      ],
      "stateMutability": "view",
      "type": "function"
    },
    {
      "inputs": [],
      "name": "owner",
      "outputs": [
        {
          "internalType": "address payable",
          "name": "",
          "type": "address"
        }
      ],
      "stateMutability": "view",
      "type": "function"
    },
    {
      "inputs": [],
      "name": "rewardRate",
      "outputs": [
        {
          "internalType": "uint256",
          "name": "",
          "type": "uint256"
        }
      ],
      "stateMutability": "view",
      "type": "function"
    },
    {
      "inputs": [
        {
          "internalType": "uint256",
          "name": "reward",
          "type": "uint256"
        }
      ],
      "name": "setBlockReward",
      "outputs": [],
      "stateMutability": "nonpayable",
      "type": "function"
    },
    {
      "inputs": [
        {
          "internalType": "uint256",
          "name": "newFee",
          "type": "uint256"
        }
      ],
      "name": "setFeePercent",
      "outputs": [],
      "stateMutability": "nonpayable",
      "type": "function"
    },
    {
      "inputs": [
        {
          "internalType": "uint256",
          "name": "newRate",
          "type": "uint256"
        }
      ],
      "name": "setRewardRate",
      "outputs": [],
      "stateMutability": "nonpayable",
      "type": "function"
    },
    {
      "inputs": [],
      "name": "symbol",
      "outputs": [
        {
          "internalType": "string",
          "name": "",
          "type": "string"
        }
      ],
      "stateMutability": "view",
      "type": "function"
    },
    {
      "inputs": [],
      "name": "totalSupply",
      "outputs": [
        {
          "internalType": "uint256",
          "name": "",
          "type": "uint256"
        }
      ],
      "stateMutability": "view",
      "type": "function"
    },
    {
      "inputs": [
        {
          "internalType": "address",
          "name": "to",
          "type": "address"
        },
        {
          "internalType": "uint256",
          "name": "value",
          "type": "uint256"
        }
      ],
      "name": "transfer",
      "outputs": [
        {
          "internalType": "bool",
          "name": "",
          "type": "bool"
        }
      ],
      "stateMutability": "nonpayable",
      "type": "function"
    },
    {
      "inputs": [
        {
          "internalType": "address",
          "name": "from",
          "type": "address"
        },
        {
          "internalType": "address",
          "name": "to",
          "type": "address"
        },
        {
          "internalType": "uint256",
          "name": "value",
          "type": "uint256"
        }
      ],
      "name": "transferFrom",
      "outputs": [
        {
          "internalType": "bool",
          "name": "",
          "type": "bool"
        }
      ],
      "stateMutability": "nonpayable",
      "type": "function"
    }
  ],
  "bytecode": "0x60a06040523480156200001157600080fd5b506040516200325438038062003254833981810160405281019062000037919062000981565b620000476200024c60201b60201c565b600a62000055919062000b6d565b8362000062919062000bbe565b6040518060400160405280600781526020017f4d79546f6b656e000000000000000000000000000000000000000000000000008152506040518060400160405280600381526020017f4d544b00000000000000000000000000000000000000000000000000000000008152508160039081620000df919062000e79565b508060049081620000f1919062000e79565b505050600081036200013d5760006040517f392e1e2700000000000000000000000000000000000000000000000000000000815260040162000134919062000fa3565b60405180910390fd5b80608081815250505033600560006101000a81548173ffffffffffffffffffffffffffffffffffffffff021916908373ffffffffffffffffffffffffffffffffffffffff160217905550620001e8600560009054906101000a900473ffffffffffffffffffffffffffffffffffffffff16620001be6200024c60201b60201c565b600a620001cc919062000b6d565b624c4b40620001dc919062000bbe565b6200025560201b60201c565b620001f86200024c60201b60201c565b600a62000206919062000b6d565b8262000213919062000bbe565b6006819055506000600760006101000a81548160ff021916908315150217905550600a60088190555080600981905550505050620012d8565b60006012905090565b600073ffffffffffffffffffffffffffffffffffffffff168273ffffffffffffffffffffffffffffffffffffffff1603620002ca5760006040517fec442f05000000000000000000000000000000000000000000000000000000008152600401620002c1919062001005565b60405180910390fd5b620002de60008383620002e260201b60201c565b5050565b600760009054906101000a900460ff161562000335576040517f08c379a00000000000000000000000000000000000000000000000000000000081526004016200032c90620010a9565b60405180910390fd5b600073ffffffffffffffffffffffffffffffffffffffff168373ffffffffffffffffffffffffffffffffffffffff1614158015620003a05750600073ffffffffffffffffffffffffffffffffffffffff168273ffffffffffffffffffffffffffffffffffffffff1614155b8015620003fb5750600560009054906101000a900473ffffffffffffffffffffffffffffffffffffffff1673ffffffffffffffffffffffffffffffffffffffff168373ffffffffffffffffffffffffffffffffffffffff1614155b15620004965762000411620004af60201b60201c565b60006127106008548362000426919062000bbe565b620004329190620010fa565b90506000818362000444919062001132565b90506200047b85600560009054906101000a900473ffffffffffffffffffffffffffffffffffffffff1684620005f360201b60201c565b6200048e858583620005f360201b60201c565b5050620004aa565b620004a9838383620005f360201b60201c565b5b505050565b600760009054906101000a900460ff161562000502576040517f08c379a0000000000000000000000000000000000000000000000000000000008152600401620004f990620011e3565b60405180910390fd5b6000600a60003373ffffffffffffffffffffffffffffffffffffffff1673ffffffffffffffffffffffffffffffffffffffff168152602001908152602001600020544262000551919062001132565b90506000670de0b6b3a7640000826009546200057333620006b560201b60201c565b6200057f919062000bbe565b6200058b919062000bbe565b620005979190620010fa565b9050620005ab33826200025560201b60201c565b42600a60003373ffffffffffffffffffffffffffffffffffffffff1673ffffffffffffffffffffffffffffffffffffffff168152602001908152602001600020819055505050565b62000606838383620006fd60201b60201c565b600073ffffffffffffffffffffffffffffffffffffffff168373ffffffffffffffffffffffffffffffffffffffff1603620006b05760006200064d6200092d60201b60201c565b90506000620006616200093760201b60201c565b905081811115620006ad5780826040517f9e79f854000000000000000000000000000000000000000000000000000000008152600401620006a492919062001216565b60405180910390fd5b50505b505050565b60008060008373ffffffffffffffffffffffffffffffffffffffff1673ffffffffffffffffffffffffffffffffffffffff168152602001908152602001600020549050919050565b600073ffffffffffffffffffffffffffffffffffffffff168373ffffffffffffffffffffffffffffffffffffffff16036200075357806002600082825462000746919062001243565b9250508190555062000829565b60008060008573ffffffffffffffffffffffffffffffffffffffff1673ffffffffffffffffffffffffffffffffffffffff16815260200190815260200160002054905081811015620007e2578381836040517fe450d38c000000000000000000000000000000000000000000000000000000008152600401620007d9939291906200127e565b60405180910390fd5b8181036000808673ffffffffffffffffffffffffffffffffffffffff1673ffffffffffffffffffffffffffffffffffffffff16815260200190815260200160002081905550505b600073ffffffffffffffffffffffffffffffffffffffff168273ffffffffffffffffffffffffffffffffffffffff1603620008745780600260008282540392505081905550620008c1565b806000808473ffffffffffffffffffffffffffffffffffffffff1673ffffffffffffffffffffffffffffffffffffffff168152602001908152602001600020600082825401925050819055505b8173ffffffffffffffffffffffffffffffffffffffff168373ffffffffffffffffffffffffffffffffffffffff167fddf252ad1be2c89b69c2b068fc378daa952ba7f163c4a11628f55a4df523b3ef83604051620009209190620012bb565b60405180910390a3505050565b6000608051905090565b6000600254905090565b600080fd5b6000819050919050565b6200095b8162000946565b81146200096757600080fd5b50565b6000815190506200097b8162000950565b92915050565b6000806000606084860312156200099d576200099c62000941565b5b6000620009ad868287016200096a565b9350506020620009c0868287016200096a565b9250506040620009d3868287016200096a565b9150509250925092565b7f4e487b7100000000000000000000000000000000000000000000000000000000600052601160045260246000fd5b60008160011c9050919050565b6000808291508390505b600185111562000a6b5780860481111562000a435762000a42620009dd565b5b600185161562000a535780820291505b808102905062000a638562000a0c565b945062000a23565b94509492505050565b60008262000a86576001905062000b59565b8162000a96576000905062000b59565b816001811462000aaf576002811462000aba5762000af0565b600191505062000b59565b60ff84111562000acf5762000ace620009dd565b5b8360020a91508482111562000ae95762000ae8620009dd565b5b5062000b59565b5060208310610133831016604e8410600b841016171562000b2a5782820a90508381111562000b245762000b23620009dd565b5b62000b59565b62000b39848484600162000a19565b9250905081840481111562000b535762000b52620009dd565b5b81810290505b9392505050565b600060ff82169050919050565b600062000b7a8262000946565b915062000b878362000b60565b925062000bb67fffffffffffffffffffffffffffffffffffffffffffffffffffffffffffffffff848462000a74565b905092915050565b600062000bcb8262000946565b915062000bd88362000946565b925082820262000be88162000946565b9150828204841483151762000c025762000c01620009dd565b5b5092915050565b600081519050919050565b7f4e487b7100000000000000000000000000000000000000000000000000000000600052604160045260246000fd5b7f4e487b7100000000000000000000000000000000000000000000000000000000600052602260045260246000fd5b6000600282049050600182168062000c8b57607f821691505b60208210810362000ca15762000ca062000c43565b5b50919050565b60008190508160005260206000209050919050565b60006020601f8301049050919050565b600082821b905092915050565b60006008830262000d0b7fffffffffffffffffffffffffffffffffffffffffffffffffffffffffffffffff8262000ccc565b62000d17868362000ccc565b95508019841693508086168417925050509392505050565b6000819050919050565b600062000d5a62000d5462000d4e8462000946565b62000d2f565b62000946565b9050919050565b6000819050919050565b62000d768362000d39565b62000d8e62000d858262000d61565b84845462000cd9565b825550505050565b600090565b62000da562000d96565b62000db281848462000d6b565b505050565b5b8181101562000dda5762000dce60008262000d9b565b60018101905062000db8565b5050565b601f82111562000e295762000df38162000ca7565b62000dfe8462000cbc565b8101602085101562000e0e578190505b62000e2662000e1d8562000cbc565b83018262000db7565b50505b505050565b600082821c905092915050565b600062000e4e6000198460080262000e2e565b1980831691505092915050565b600062000e69838362000e3b565b9150826002028217905092915050565b62000e848262000c09565b67ffffffffffffffff81111562000ea05762000e9f62000c14565b5b62000eac825462000c72565b62000eb982828562000dde565b600060209050601f83116001811462000ef1576000841562000edc578287015190505b62000ee8858262000e5b565b86555062000f58565b601f19841662000f018662000ca7565b60005b8281101562000f2b5784890151825560018201915060208501945060208101905062000f04565b8683101562000f4b578489015162000f47601f89168262000e3b565b8355505b6001600288020188555050505b505050505050565b6000819050919050565b600062000f8b62000f8562000f7f8462000f60565b62000d2f565b62000946565b9050919050565b62000f9d8162000f6a565b82525050565b600060208201905062000fba600083018462000f92565b92915050565b600073ffffffffffffffffffffffffffffffffffffffff82169050919050565b600062000fed8262000fc0565b9050919050565b62000fff8162000fe0565b82525050565b60006020820190506200101c600083018462000ff4565b92915050565b600082825260208201905092915050565b7f436f6e74726163742069732066726f7a656e20616e64207472616e736665727360008201527f206172652064697361626c656400000000000000000000000000000000000000602082015250565b600062001091602d8362001022565b91506200109e8262001033565b604082019050919050565b60006020820190508181036000830152620010c48162001082565b9050919050565b7f4e487b7100000000000000000000000000000000000000000000000000000000600052601260045260246000fd5b6000620011078262000946565b9150620011148362000946565b925082620011275762001126620010cb565b5b828204905092915050565b60006200113f8262000946565b91506200114c8362000946565b9250828203905081811115620011675762001166620009dd565b5b92915050565b7f436f6e74726163742069732066726f7a656e20616e642063616e6e6f7420626560008201527f206d6f6469666965640000000000000000000000000000000000000000000000602082015250565b6000620011cb60298362001022565b9150620011d8826200116d565b604082019050919050565b60006020820190508181036000830152620011fe81620011bc565b9050919050565b620012108162000946565b82525050565b60006040820190506200122d600083018562001205565b6200123c602083018462001205565b9392505050565b6000620012508262000946565b91506200125d8362000946565b9250828201905080821115620012785762001277620009dd565b5b92915050565b600060608201905062001295600083018662000ff4565b620012a4602083018562001205565b620012b3604083018462001205565b949350505050565b6000602082019050620012d2600083018462001205565b92915050565b608051611f60620012f460003960006106810152611f606000f3fe608060405234801561001057600080fd5b50600436106101585760003560e01c806379cc6790116100c35780639e447fc61161007c5780639e447fc6146103a5578063a584a9b5146103c1578063a9059cbb146103cb578063b77cf9c6146103fb578063b88a802f1461042b578063dd62ed3e1461043557610158565b806379cc6790146102f55780637b0a47ee146103115780637ce3489b1461032f5780637fd6f15c1461034b5780638da5cb5b1461036957806395d89b411461038757610158565b8063313ce56711610115578063313ce5671461023357806333eeb14714610251578063355274ea1461026f57806340c10f191461028d57806342966c68146102a957806370a08231146102c557610158565b806306fdde031461015d578063095ea7b31461017b5780630ac168a1146101ab57806318160ddd146101c95780631a18e707146101e757806323b872dd14610203575b600080fd5b610165610465565b60405161017291906116ac565b60405180910390f35b61019560048036038101906101909190611767565b6104f7565b6040516101a291906117c2565b60405180910390f35b6101b361051a565b6040516101c091906117ec565b60405180910390f35b6101d1610520565b6040516101de91906117ec565b60405180910390f35b61020160048036038101906101fc9190611807565b61052a565b005b61021d60048036038101906102189190611834565b610632565b60405161022a91906117c2565b60405180910390f35b61023b610661565b60405161024891906118a3565b60405180910390f35b61025961066a565b60405161026691906117c2565b60405180910390f35b61027761067d565b60405161028491906117ec565b60405180910390f35b6102a760048036038101906102a29190611767565b6106a5565b005b6102c360048036038101906102be9190611807565b610743565b005b6102df60048036038101906102da91906118be565b610757565b6040516102ec91906117ec565b60405180910390f35b61030f600480360381019061030a9190611767565b61079f565b005b6103196107bf565b60405161032691906117ec565b60405180910390f35b61034960048036038101906103449190611807565b6107c5565b005b6103536108f3565b60405161036091906117ec565b60405180910390f35b6103716108f9565b60405161037e919061190c565b60405180910390f35b61038f61091f565b60405161039c91906116ac565b60405180910390f35b6103bf60048036038101906103ba9190611807565b6109b1565b005b6103c9610a9b565b005b6103e560048036038101906103e09190611767565b610b48565b6040516103f291906117c2565b60405180910390f35b610415600480360381019061041091906118be565b610b6b565b60405161042291906117ec565b60405180910390f35b610433610b83565b005b61044f600480360381019061044a9190611927565b610cac565b60405161045c91906117ec565b60405180910390f35b60606003805461047490611996565b80601f01602080910402602001604051908101604052809291908181526020018280546104a090611996565b80156104ed5780601f106104c2576101008083540402835291602001916104ed565b820191906000526020600020905b8154815290600101906020018083116104d057829003601f168201915b5050505050905090565b600080610502610d33565b905061050f818585610d3b565b600191505092915050565b60065481565b6000600254905090565b600560009054906101000a900473ffffffffffffffffffffffffffffffffffffffff1673ffffffffffffffffffffffffffffffffffffffff163373ffffffffffffffffffffffffffffffffffffffff16146105ba576040517f08c379a00000000000000000000000000000000000000000000000000000000081526004016105b190611a39565b60405180910390fd5b600760009054906101000a900460ff161561060a576040517f08c379a000000000000000000000000000000000000000000000000000000000815260040161060190611acb565b60405180910390fd5b610612610661565b600a61061e9190611c4d565b816106299190611c98565b60068190555050565b60008061063d610d33565b905061064a858285610d4d565b610655858585610de2565b60019150509392505050565b60006012905090565b600760009054906101000a900460ff1681565b60007f0000000000000000000000000000000000000000000000000000000000000000905090565b600560009054906101000a900473ffffffffffffffffffffffffffffffffffffffff1673ffffffffffffffffffffffffffffffffffffffff163373ffffffffffffffffffffffffffffffffffffffff1614610735576040517f08c379a000000000000000000000000000000000000000000000000000000000815260040161072c90611a39565b60405180910390fd5b61073f8282610ed6565b5050565b61075461074e610d33565b82610f58565b50565b60008060008373ffffffffffffffffffffffffffffffffffffffff1673ffffffffffffffffffffffffffffffffffffffff168152602001908152602001600020549050919050565b6107b1826107ab610d33565b83610d4d565b6107bb8282610f58565b5050565b60095481565b600560009054906101000a900473ffffffffffffffffffffffffffffffffffffffff1673ffffffffffffffffffffffffffffffffffffffff163373ffffffffffffffffffffffffffffffffffffffff1614610855576040517f08c379a000000000000000000000000000000000000000000000000000000000815260040161084c90611a39565b60405180910390fd5b600760009054906101000a900460ff16156108a5576040517f08c379a000000000000000000000000000000000000000000000000000000000815260040161089c90611acb565b60405180910390fd5b60648111156108e9576040517f08c379a00000000000000000000000000000000000000000000000000000000081526004016108e090611d26565b60405180910390fd5b8060088190555050565b60085481565b600560009054906101000a900473ffffffffffffffffffffffffffffffffffffffff1681565b60606004805461092e90611996565b80601f016020809104026020016040519081016040528092919081815260200182805461095a90611996565b80156109a75780601f1061097c576101008083540402835291602001916109a7565b820191906000526020600020905b81548152906001019060200180831161098a57829003601f168201915b5050505050905090565b600560009054906101000a900473ffffffffffffffffffffffffffffffffffffffff1673ffffffffffffffffffffffffffffffffffffffff163373ffffffffffffffffffffffffffffffffffffffff1614610a41576040517f08c379a0000000000000000000000000000000000000000000000000000000008152600401610a3890611a39565b60405180910390fd5b600760009054906101000a900460ff1615610a91576040517f08c379a0000000000000000000000000000000000000000000000000000000008152600401610a8890611acb565b60405180910390fd5b8060098190555050565b600560009054906101000a900473ffffffffffffffffffffffffffffffffffffffff1673ffffffffffffffffffffffffffffffffffffffff163373ffffffffffffffffffffffffffffffffffffffff1614610b2b576040517f08c379a0000000000000000000000000000000000000000000000000000000008152600401610b2290611a39565b60405180910390fd5b6001600760006101000a81548160ff021916908315150217905550565b600080610b53610d33565b9050610b60818585610de2565b600191505092915050565b600a6020528060005260406000206000915090505481565b600760009054906101000a900460ff1615610bd3576040517f08c379a0000000000000000000000000000000000000000000000000000000008152600401610bca90611acb565b60405180910390fd5b6000600a60003373ffffffffffffffffffffffffffffffffffffffff1673ffffffffffffffffffffffffffffffffffffffff1681526020019081526020016000205442610c209190611d46565b90506000670de0b6b3a764000082600954610c3a33610757565b610c449190611c98565b610c4e9190611c98565b610c589190611da9565b9050610c643382610ed6565b42600a60003373ffffffffffffffffffffffffffffffffffffffff1673ffffffffffffffffffffffffffffffffffffffff168152602001908152602001600020819055505050565b6000600160008473ffffffffffffffffffffffffffffffffffffffff1673ffffffffffffffffffffffffffffffffffffffff16815260200190815260200160002060008373ffffffffffffffffffffffffffffffffffffffff1673ffffffffffffffffffffffffffffffffffffffff16815260200190815260200160002054905092915050565b600033905090565b610d488383836001610fda565b505050565b6000610d598484610cac565b90507fffffffffffffffffffffffffffffffffffffffffffffffffffffffffffffffff811015610ddc5781811015610dcc578281836040517ffb8f41b2000000000000000000000000000000000000000000000000000000008152600401610dc393929190611de9565b60405180910390fd5b610ddb84848484036000610fda565b5b50505050565b600073ffffffffffffffffffffffffffffffffffffffff168373ffffffffffffffffffffffffffffffffffffffff1603610e545760006040517f96c6fd1e000000000000000000000000000000000000000000000000000000008152600401610e4b9190611e20565b60405180910390fd5b600073ffffffffffffffffffffffffffffffffffffffff168273ffffffffffffffffffffffffffffffffffffffff1603610ec65760006040517fec442f05000000000000000000000000000000000000000000000000000000008152600401610ebd9190611e20565b60405180910390fd5b610ed18383836111b1565b505050565b600073ffffffffffffffffffffffffffffffffffffffff168273ffffffffffffffffffffffffffffffffffffffff1603610f485760006040517fec442f05000000000000000000000000000000000000000000000000000000008152600401610f3f9190611e20565b60405180910390fd5b610f54600083836111b1565b5050565b600073ffffffffffffffffffffffffffffffffffffffff168273ffffffffffffffffffffffffffffffffffffffff1603610fca5760006040517f96c6fd1e000000000000000000000000000000000000000000000000000000008152600401610fc19190611e20565b60405180910390fd5b610fd6826000836111b1565b5050565b600073ffffffffffffffffffffffffffffffffffffffff168473ffffffffffffffffffffffffffffffffffffffff160361104c5760006040517fe602df050000000000000000000000000000000000000000000000000000000081526004016110439190611e20565b60405180910390fd5b600073ffffffffffffffffffffffffffffffffffffffff168373ffffffffffffffffffffffffffffffffffffffff16036110be5760006040517f94280d620000000000000000000000000000000000000000000000000000000081526004016110b59190611e20565b60405180910390fd5b81600160008673ffffffffffffffffffffffffffffffffffffffff1673ffffffffffffffffffffffffffffffffffffffff16815260200190815260200160002060008573ffffffffffffffffffffffffffffffffffffffff1673ffffffffffffffffffffffffffffffffffffffff1681526020019081526020016000208190555080156111ab578273ffffffffffffffffffffffffffffffffffffffff168473ffffffffffffffffffffffffffffffffffffffff167f8c5be1e5ebec7d5bd14f71427d1e84f3dd0314c0f7b2291e5b200ac8c7c3b925846040516111a291906117ec565b60405180910390a35b50505050565b600760009054906101000a900460ff1615611201576040517f08c379a00000000000000000000000000000000000000000000000000000000081526004016111f890611ead565b60405180910390fd5b600073ffffffffffffffffffffffffffffffffffffffff168373ffffffffffffffffffffffffffffffffffffffff161415801561126b5750600073ffffffffffffffffffffffffffffffffffffffff168273ffffffffffffffffffffffffffffffffffffffff1614155b80156112c55750600560009054906101000a900473ffffffffffffffffffffffffffffffffffffffff1673ffffffffffffffffffffffffffffffffffffffff168373ffffffffffffffffffffffffffffffffffffffff1614155b15611340576112d2610b83565b6000612710600854836112e59190611c98565b6112ef9190611da9565b9050600081836112ff9190611d46565b905061132e85600560009054906101000a900473ffffffffffffffffffffffffffffffffffffffff1684611351565b611339858583611351565b505061134c565b61134b838383611351565b5b505050565b61135c8383836113f7565b600073ffffffffffffffffffffffffffffffffffffffff168373ffffffffffffffffffffffffffffffffffffffff16036113f257600061139a61067d565b905060006113a6610520565b9050818111156113ef5780826040517f9e79f8540000000000000000000000000000000000000000000000000000000081526004016113e6929190611ecd565b60405180910390fd5b50505b505050565b600073ffffffffffffffffffffffffffffffffffffffff168373ffffffffffffffffffffffffffffffffffffffff160361144957806002600082825461143d9190611ef6565b9250508190555061151c565b60008060008573ffffffffffffffffffffffffffffffffffffffff1673ffffffffffffffffffffffffffffffffffffffff168152602001908152602001600020549050818110156114d5578381836040517fe450d38c0000000000000000000000000000000000000000000000000000000081526004016114cc93929190611de9565b60405180910390fd5b8181036000808673ffffffffffffffffffffffffffffffffffffffff1673ffffffffffffffffffffffffffffffffffffffff16815260200190815260200160002081905550505b600073ffffffffffffffffffffffffffffffffffffffff168273ffffffffffffffffffffffffffffffffffffffff160361156557806002600082825403925050819055506115b2565b806000808473ffffffffffffffffffffffffffffffffffffffff1673ffffffffffffffffffffffffffffffffffffffff168152602001908152602001600020600082825401925050819055505b8173ffffffffffffffffffffffffffffffffffffffff168373ffffffffffffffffffffffffffffffffffffffff167fddf252ad1be2c89b69c2b068fc378daa952ba7f163c4a11628f55a4df523b3ef8360405161160f91906117ec565b60405180910390a3505050565b600081519050919050565b600082825260208201905092915050565b60005b8381101561165657808201518184015260208101905061163b565b60008484015250505050565b6000601f19601f8301169050919050565b600061167e8261161c565b6116888185611627565b9350611698818560208601611638565b6116a181611662565b840191505092915050565b600060208201905081810360008301526116c68184611673565b905092915050565b600080fd5b600073ffffffffffffffffffffffffffffffffffffffff82169050919050565b60006116fe826116d3565b9050919050565b61170e816116f3565b811461171957600080fd5b50565b60008135905061172b81611705565b92915050565b6000819050919050565b61174481611731565b811461174f57600080fd5b50565b6000813590506117618161173b565b92915050565b6000806040838503121561177e5761177d6116ce565b5b600061178c8582860161171c565b925050602061179d85828601611752565b9150509250929050565b60008115159050919050565b6117bc816117a7565b82525050565b60006020820190506117d760008301846117b3565b92915050565b6117e681611731565b82525050565b600060208201905061180160008301846117dd565b92915050565b60006020828403121561181d5761181c6116ce565b5b600061182b84828501611752565b91505092915050565b60008060006060848603121561184d5761184c6116ce565b5b600061185b8682870161171c565b935050602061186c8682870161171c565b925050604061187d86828701611752565b9150509250925092565b600060ff82169050919050565b61189d81611887565b82525050565b60006020820190506118b86000830184611894565b92915050565b6000602082840312156118d4576118d36116ce565b5b60006118e28482850161171c565b91505092915050565b60006118f6826116d3565b9050919050565b611906816118eb565b82525050565b600060208201905061192160008301846118fd565b92915050565b6000806040838503121561193e5761193d6116ce565b5b600061194c8582860161171c565b925050602061195d8582860161171c565b9150509250929050565b7f4e487b7100000000000000000000000000000000000000000000000000000000600052602260045260246000fd5b600060028204905060018216806119ae57607f821691505b6020821081036119c1576119c0611967565b5b50919050565b7f4f6e6c7920746865206f776e65722063616e2063616c6c20746869732066756e60008201527f6374696f6e000000000000000000000000000000000000000000000000000000602082015250565b6000611a23602583611627565b9150611a2e826119c7565b604082019050919050565b60006020820190508181036000830152611a5281611a16565b9050919050565b7f436f6e74726163742069732066726f7a656e20616e642063616e6e6f7420626560008201527f206d6f6469666965640000000000000000000000000000000000000000000000602082015250565b6000611ab5602983611627565b9150611ac082611a59565b604082019050919050565b60006020820190508181036000830152611ae481611aa8565b9050919050565b7f4e487b7100000000000000000000000000000000000000000000000000000000600052601160045260246000fd5b60008160011c9050919050565b6000808291508390505b6001851115611b7157808604811115611b4d57611b4c611aeb565b5b6001851615611b5c5780820291505b8081029050611b6a85611b1a565b9450611b31565b94509492505050565b600082611b8a5760019050611c46565b81611b985760009050611c46565b8160018114611bae5760028114611bb857611be7565b6001915050611c46565b60ff841115611bca57611bc9611aeb565b5b8360020a915084821115611be157611be0611aeb565b5b50611c46565b5060208310610133831016604e8410600b8410161715611c1c5782820a905083811115611c1757611c16611aeb565b5b611c46565b611c298484846001611b27565b92509050818404811115611c4057611c3f611aeb565b5b81810290505b9392505050565b6000611c5882611731565b9150611c6383611887565b9250611c907fffffffffffffffffffffffffffffffffffffffffffffffffffffffffffffffff8484611b7a565b905092915050565b6000611ca382611731565b9150611cae83611731565b9250828202611cbc81611731565b91508282048414831517611cd357611cd2611aeb565b5b5092915050565b7f4665652063616e6e6f7420657863656564203125000000000000000000000000600082015250565b6000611d10601483611627565b9150611d1b82611cda565b602082019050919050565b60006020820190508181036000830152611d3f81611d03565b9050919050565b6000611d5182611731565b9150611d5c83611731565b9250828203905081811115611d7457611d73611aeb565b5b92915050565b7f4e487b7100000000000000000000000000000000000000000000000000000000600052601260045260246000fd5b6000611db482611731565b9150611dbf83611731565b925082611dcf57611dce611d7a565b5b828204905092915050565b611de3816116f3565b82525050565b6000606082019050611dfe6000830186611dda565b611e0b60208301856117dd565b611e1860408301846117dd565b949350505050565b6000602082019050611e356000830184611dda565b92915050565b7f436f6e74726163742069732066726f7a656e20616e64207472616e736665727360008201527f206172652064697361626c656400000000000000000000000000000000000000602082015250565b6000611e97602d83611627565b9150611ea282611e3b565b604082019050919050565b60006020820190508181036000830152611ec681611e8a565b9050919050565b6000604082019050611ee260008301856117dd565b611eef60208301846117dd565b9392505050565b6000611f0182611731565b9150611f0c83611731565b9250828201905080821115611f2457611f23611aeb565b5b9291505056fea264697066735822122063457e9847a0037131226055670c73b57776ab8f9eaa686dcccae83180f0cbfe64736f6c63430008140033",
  "linkReferences": {},
  "deployedLinkReferences": {}
}